{
  "contractName": "Election",
  "abi": [
    {
      "inputs": [],
      "payable": false,
      "stateMutability": "nonpayable",
      "type": "constructor"
    },
    {
      "anonymous": false,
      "inputs": [
        {
          "indexed": true,
          "internalType": "uint256",
          "name": "_candidateId",
          "type": "uint256"
        }
      ],
      "name": "votedEvent",
      "type": "event"
    },
    {
      "constant": true,
      "inputs": [
        {
          "internalType": "uint256",
          "name": "",
          "type": "uint256"
        }
      ],
      "name": "candidates",
      "outputs": [
        {
          "internalType": "uint256",
          "name": "id",
          "type": "uint256"
        },
        {
          "internalType": "string",
          "name": "name",
          "type": "string"
        },
        {
          "internalType": "uint256",
          "name": "voteCount",
          "type": "uint256"
        }
      ],
      "payable": false,
      "stateMutability": "view",
      "type": "function"
    },
    {
      "constant": true,
      "inputs": [],
      "name": "candidatesCount",
      "outputs": [
        {
          "internalType": "uint256",
          "name": "",
          "type": "uint256"
        }
      ],
      "payable": false,
      "stateMutability": "view",
      "type": "function"
    },
    {
      "constant": true,
      "inputs": [
        {
          "internalType": "address",
          "name": "",
          "type": "address"
        }
      ],
      "name": "voters",
      "outputs": [
        {
          "internalType": "bool",
          "name": "",
          "type": "bool"
        }
      ],
      "payable": false,
      "stateMutability": "view",
      "type": "function"
    },
    {
      "constant": false,
      "inputs": [
        {
          "internalType": "uint256",
          "name": "_candidateId",
          "type": "uint256"
        }
      ],
      "name": "vote",
      "outputs": [],
      "payable": false,
      "stateMutability": "nonpayable",
      "type": "function"
    }
  ],
  "bytecode": "0x608060405234801561001057600080fd5b506100556040518060400160405280600b81526020017f43616e646964617465203100000000000000000000000000000000000000000081525061009e60201b60201c565b6100996040518060400160405280600b81526020017f43616e646964617465203200000000000000000000000000000000000000000081525061009e60201b60201c565b6101bf565b60026000815480929190600101919050555060405180606001604052806002548152602001828152602001600081525060016000600254815260200190815260200160002060008201518160000155602082015181600101908051906020019061010992919061011a565b506040820151816002015590505050565b828054600181600116156101000203166002900490600052602060002090601f016020900481019282601f1061015b57805160ff1916838001178555610189565b82800160010185558215610189579182015b8281111561018857825182559160200191906001019061016d565b5b509050610196919061019a565b5090565b6101bc91905b808211156101b85760008160009055506001016101a0565b5090565b90565b6103e9806101ce6000396000f3fe608060405234801561001057600080fd5b506004361061004c5760003560e01c80630121b93f146100515780632d35a8a21461007f5780633477ee2e1461009d578063a3ec138d14610152575b600080fd5b61007d6004803603602081101561006757600080fd5b81019080803590602001909291905050506101ae565b005b6100876102cc565b6040518082815260200191505060405180910390f35b6100c9600480360360208110156100b357600080fd5b81019080803590602001909291905050506102d2565b6040518084815260200180602001838152602001828103825284818151815260200191508051906020019080838360005b838110156101155780820151818401526020810190506100fa565b50505050905090810190601f1680156101425780820380516001836020036101000a031916815260200191505b5094505050505060405180910390f35b6101946004803603602081101561016857600080fd5b81019080803573ffffffffffffffffffffffffffffffffffffffff169060200190929190505050610394565b604051808215151515815260200191505060405180910390f35b6000803373ffffffffffffffffffffffffffffffffffffffff1673ffffffffffffffffffffffffffffffffffffffff16815260200190815260200160002060009054906101000a900460ff161561020457600080fd5b60008111801561021657506002548111155b61021f57600080fd5b60016000803373ffffffffffffffffffffffffffffffffffffffff1673ffffffffffffffffffffffffffffffffffffffff16815260200190815260200160002060006101000a81548160ff0219169083151502179055506001600082815260200190815260200160002060020160008154809291906001019190505550807ffff3c900d938d21d0990d786e819f29b8d05c1ef587b462b939609625b684b1660405160405180910390a250565b60025481565b6001602052806000526040600020600091509050806000015490806001018054600181600116156101000203166002900480601f0160208091040260200160405190810160405280929190818152602001828054600181600116156101000203166002900480156103845780601f1061035957610100808354040283529160200191610384565b820191906000526020600020905b81548152906001019060200180831161036757829003601f168201915b5050505050908060020154905083565b60006020528060005260406000206000915054906101000a900460ff168156fea265627a7a72315820e12e0bff041f34f26d4fb91479b2d0c10b0acb7fa8af3711825267691e7d181e64736f6c63430005100032",
  "source": "pragma solidity >0.4.11;\ncontract Election{\n\n        // model a candidate\n        struct Candidate{\n            uint id;\n            string name;\n            uint voteCount;\n        }\n        // store account that have voted\n        mapping(address => bool) public voters;\n        // store candidates\n        mapping(uint => Candidate) public candidates;\n        //basically when ever you apply public in front of any datastructure or storage variable truffle provide us the method to access them by name()\n        // for storing the data of candidates i will be using key value pair which is mapping in solidity\n        // fetch candidates\n        // store candidate count\n        //*********************************************************************************\n        //now we will be adding the event that gonna get triggered ever time we cast a vote\n         event votedEvent(\n             uint indexed _candidateId\n         );\n        //*********************************************************************************\n        uint public candidatesCount;\n        constructor() public{\n              addCandidate(\"Candidate 1\");\n              addCandidate(\"Candidate 2\");\n\n           \n        }\n\n        function addCandidate(string memory  _name) private{\n            candidatesCount ++;\n            candidates[candidatesCount] = Candidate(candidatesCount,_name,0);\n        }\n        // writing the function to cast vote\n        function vote(uint _candidateId) public{\n            //require they havent voted before\n            require(!voters[msg.sender]);//just like c++\n            //require they voting for valid candidate\n            require(_candidateId>0 && _candidateId<=candidatesCount);\n\n             \n            //record that voter has voted or not\n            // now how will we know that which account is voting or is this account has voted earlier\n            //so for that we will send the meta data of the person that is currently voting\n            // solidity allow us to add or send meta data \n            voters[msg.sender] = true ;//------------------>this is meta data this will give the account\n            //increase the vote count for the particular candidate\n            candidates[_candidateId].voteCount ++;\n            //trigger voted event\n            emit votedEvent(_candidateId);\n            \n\n        }\n }\n\n",
  "sourcePath": "/home/shagun/Desktop/votingproject/SVM/contracts/Election.sol",
  "compiler": {
    "name": "solc",
    "version": "0.5.16+commit.9c3226ce.Emscripten.clang"
  },
  "schemaVersion": "3.4.3",
  "updatedAt": "2021-08-28T11:45:27.556Z",
  "networkType": "ethereum",
  "devdoc": {
    "methods": {}
  },
  "userdoc": {
    "methods": {}
  }
}